:030000000202E613
:0C02E600787FE4F6D8FD75811C02032D22
:1002230012040312046E120444120418E4F508E5E0
:10023300086009120444E4F5081204181203728FCB
:100243000C8E0B8D0A8C09E4FFFE7D0C7C42AB0CFB
:10025300AA0BA90AA8091201146007400512049603
:1002630080CDE4FFFE7D207C41AB0CAA0BA90AA83C
:1002730009120114500512049F80B41204A8120439
:10028300601204181203728F108E0F8D0E8C0D12D4
:1002930004441204181204527508021204181203BB
:1002A300728F148E138D128C11AB10AA0FA90EA886
:1002B3000D120114500912048D1204181204A8AF70
:1002C30010AE0FAD0EAC0DAB14AA13A912A81112E8
:1002D300011440030202321204841204181204A807
:0302E300020232E2
:0C046E0053890F438910E4F58DF58B22B3
:0A047A00C2A3D2A3120003C2A32202
:10037200E4F58DF58B12042712047A30A2FDD28E99
:1003820020A2FDC28EAF8DEFFEAD8B7C00E42DFD71
:10039200EC3EFCE41201927B487AE1798A783F12C2
:1003A200000E8F188E178D168C157F967E437D8BCF
:0D03B2007C3CAB18AA17A916A81512000E66
:0103BF00221B
:0E04180000007F077E4E7DA7DDFEDEFCDFFAD2
:0104260022B3
:0D043600007F0F7E027DEBDDFEDEFCDFFAB5
:010443002296
:040003007F02DFFE9B
:0100070022D6
:0E04270000007F027E437DB7DDFEDEFCDFFAC3
:0104350022A4
:0404B100021B00002A
:100403005389F0438901758A33758CFED28CC28D72
:05041300D2A9D2AF22C6
:0E044400751900751A03E4F51BF51C02043649
:0E045200751900751A01E4F51BF51C0204185B
:0E046000751900751A05E4F51BF51C02041849
:03000B000203C02D
:1003C000C0E0C0D075D000C000051CE51C7002055F
:1003D0001B758A33758CFEC3E51C951AE51964807C
:1003E000F8E51B6480985004D2918002C291E51C0C
:1003F0006428451B7006F51BF51CD291D000D0D0A7
:03040000D0E03217
:09048400C2B4C2B5C2B2D2B32267
:09048D00C2B4D2B5C2B2C2B3225E
:09049600C2B4D2B5C2B2D2B32245
:09049F00D2B4C2B5D2B2C2B3223C
:0904A800C2B4C2B5C2B2C2B32253
:10000E00EC4D6011E8497017ED33EC3304600DE4EC
:10001E00FCFFFEFD22E933E8330470F80202001201
:10002E0001CB58046009E4CC248150062850090203
:10003E00020A284003020207C0E0EB4A7044B9806E
:10004E0006D0E0FB0201F6EF4E701CBD8008EBFF00
:10005E00EAFEE9FD80EBE98DF0A4FEE5F00200F783
:10006E00E9CDF9EAFEEBFFEF89F0A4FCE5F0CE89CD
:10007E00F0A42EFFE435F0CD89F0A42DFEE435F08A
:10008E008067EF4E7005BD80D780C3EF8BF0A4ACB8
:10009E00F0EE8BF0A42CFCE435F0F8EF8AF0A42CF3
:1000AE00E5F038FCE433CB8DF0A42CFCE5F03BF806
:1000BE00EE8AF0A42CFCE5F038F8E433CF89F0A4F6
:1000CE002CFCE5F038CF3400CE89F0A42FFFE5F0FC
:1000DE003EFEE433C98DF0A42EFEE5F039CD8AF054
:1000EE00A42FFFE5F03EFEE43DFD33D0E0FB5007CC
:1000FE000BBB000F02020AEC2CFCEF33FFEE33FEBB
:06010E00ED33FD0201E2E9
:1001140074F8CC6480CCC86480C8F58204604FC392
:10012400EB9FF5F0EA9E42F0E99D42F0E89C45F031
:10013400603C501DE5825FFFE582D313CB5BCBF4BB
:100144002B5582FB50280ABA002409B900200880E4
:100154001DE5825BFBE582D313CF5FCFF4C3132F7E
:100164005582FF50090EBE00050DBD00010CC3EB06
:100174009FF5F0EA9E42F0E99D42F0E89C45F0606C
:0901840007CC4820E701B3EC228E
:10018D0075F020800E75F010800575F0087D007EED
:10019D00007F003392D530D503120215EC33401099
:1001AD00EF33FFEE33FEED33FDEC33FCD5F0ED22F6
:0E01BD00E5F0247EA2D513CC92E7CDCEFF2232
:1001CB00E9D2E7C933E833F892D5EDD2E7CD33EC7A
:0701DB0033FC5002B2D522F3
:1001E200EC30E7100FBF000C0EBE00080DBD00047E
:1001F2000BEB6014A2D5EB13FCED92E7FD2274FF2A
:10020200FCFDFEFF22E480F8A2D574FF13FC7D8082
:03021200E480EF96
:1002F200020223E493A3F8E493A34003F68001F2FD
:1003020008DFF48029E493A3F85407240CC8C3330C
:10031200C4540F4420C8834004F456800146F6DFDB
:10032200E4800B01020408102040809004B1E47EB6
:10033200019360BCA3FF543F30E509541FFEE493D0
:10034200A360010ECF54C025E060A840B8E493A397
:10035200FAE493A3F8E493A3C8C582C8CAC583CAC2
:10036200F0A3C8C582C8CAC583CADFE9DEE780BE7A
:0104B5000046
:0E021500C3E49FFFE49EFEE49DFDE49CFC22FA
:00000001FF
