:03000000020223D6
:0C022300787FE4F6D8FD75811302026AB2
:100340001203781203E31203B91202AF8F0B8E0A65
:100350008D098C08E4FFFE7D207C41AB0BAA0AA925
:1003600009A80812011450081203F91203C780D912
:080370001203FE1203D580D137
:0C03E30053890F438910E4F58DF58B223F
:0A03EF00C2A3D2A3120003C2A3228E
:1002AF00E4F58DF58B12039C1203EF30A2FDD28E75
:1002BF0020A2FDC28EAF8DEFFEAD8B7C00E42DFD35
:1002CF00EC3EFCE41201927B487AE1798A783F1286
:1002DF00000E8F0F8E0E8D0D8C0C7F967E437D8BB7
:0D02EF007C3CAB0FAA0EA90DA80C12000E4E
:0102FC0022DF
:0E038D0000007F077E4E7DA7DDFEDEFCDFFA5E
:01039B00223F
:0D03AB00007F0F7E027DEBDDFEDEFCDFFA41
:0103B8002222
:040003007F02DFFE9B
:0100070022D6
:0E039C0000007F027E437DB7DDFEDEFCDFFA4F
:0103AA002230
:0404030002120000E1
:100378005389F0438901758A33758CFED28CC28DFE
:05038800D2A9D2AF2252
:0E03B900751000751101E4F512F513D29122B2
:0503F900C2B7D2B622DC
:0503FE00D2B7C2B622D7
:0E03C700751000751103E4F512F5130203AB77
:0E03D500751000751101E4F512F51302038D89
:03000B000202FDF1
:1002FD00C0E0C0D075D000C0000513E51370020535
:10030D0012758A33758CFEC3E5139511E510648063
:10031D00F8E5126480985004D2918002C291E513E1
:10032D00642845127006F512F513D291D000D0D085
:03033D00D0E032DB
:10000E00EC4D6011E8497017ED33EC3304600DE4EC
:10001E00FCFFFEFD22E933E8330470F80202001201
:10002E0001CB58046009E4CC248150062850090203
:10003E00020A284003020207C0E0EB4A7044B9806E
:10004E0006D0E0FB0201F6EF4E701CBD8008EBFF00
:10005E00EAFEE9FD80EBE98DF0A4FEE5F00200F783
:10006E00E9CDF9EAFEEBFFEF89F0A4FCE5F0CE89CD
:10007E00F0A42EFFE435F0CD89F0A42DFEE435F08A
:10008E008067EF4E7005BD80D780C3EF8BF0A4ACB8
:10009E00F0EE8BF0A42CFCE435F0F8EF8AF0A42CF3
:1000AE00E5F038FCE433CB8DF0A42CFCE5F03BF806
:1000BE00EE8AF0A42CFCE5F038F8E433CF89F0A4F6
:1000CE002CFCE5F038CF3400CE89F0A42FFFE5F0FC
:1000DE003EFEE433C98DF0A42EFEE5F039CD8AF054
:1000EE00A42FFFE5F03EFEE43DFD33D0E0FB5007CC
:1000FE000BBB000F02020AEC2CFCEF33FFEE33FEBB
:06010E00ED33FD0201E2E9
:1001140074F8CC6480CCC86480C8F58204604FC392
:10012400EB9FF5F0EA9E42F0E99D42F0E89C45F031
:10013400603C501DE5825FFFE582D313CB5BCBF4BB
:100144002B5582FB50280ABA002409B900200880E4
:100154001DE5825BFBE582D313CF5FCFF4C3132F7E
:100164005582FF50090EBE00050DBD00010CC3EB06
:100174009FF5F0EA9E42F0E99D42F0E89C45F0606C
:0901840007CC4820E701B3EC228E
:10018D0075F020800E75F010800575F0087D007EED
:10019D00007F003392D530D503120215EC33401099
:1001AD00EF33FFEE33FEED33FDEC33FCD5F0ED22F6
:0E01BD00E5F0247EA2D513CC92E7CDCEFF2232
:1001CB00E9D2E7C933E833F892D5EDD2E7CD33EC7A
:0701DB0033FC5002B2D522F3
:1001E200EC30E7100FBF000C0EBE00080DBD00047E
:1001F2000BEB6014A2D5EB13FCED92E7FD2274FF2A
:10020200FCFDFEFF22E480F8A2D574FF13FC7D8082
:03021200E480EF96
:10022F00020340E493A3F8E493A34003F68001F2A2
:10023F0008DFF48029E493A3F85407240CC8C333D0
:10024F00C4540F4420C8834004F456800146F6DF9F
:10025F00E4800B0102040810204080900403E47E28
:10026F00019360BCA3FF543F30E509541FFEE49394
:10027F00A360010ECF54C025E060A840B8E493A35B
:10028F00FAE493A3F8E493A3C8C582C8CAC583CA86
:10029F00F0A3C8C582C8CAC583CADFE9DEE780BE3E
:0104070000F4
:0E021500C3E49FFFE49EFEE49DFDE49CFC22FA
:00000001FF
