:03000000020A648D
:0C0A6400787FE4F6D8FD758121020AAB12
:100BFE002D2D2D2D2D52656164792D2D2D2D002D30
:100C0E002D2D2D2D58756E4A692D2D2D2D002D2D26
:100C1E002D2D2D47656E5375692D2D2D2D002D2DE6
:0F0C2E002D2D2D42695A68616E672D2D2D2D00D9
:100CC10020A70620A603120DFD30A70620A60312B9
:100CD1000DEB20A70630A603120DF430A70630A6AF
:050CE10003120E0F22BA
:100CE60020A50620A403120DFD30A50620A403129C
:100CF6000DF420A50630A403120DEB30A50630A492
:050D060003120E0F2294
:1009B900E50C6009120D95E4F50C120D69120B6D29
:1009C9008F0B8E0A8D098C08E4FFFE7D0C7C42ABEF
:1009D9000BAA0AA909A80812070460054003020D19
:1009E900FDE4FFFE7D207C41AB0BAA0AA909A808FA
:1009F9001207045003020E06120E0F120DB1120D4A
:100A090069120B6D8F148E138D128C11120D9512A4
:100A19000D69120DA3750C02120D69120B6D8F1061
:100A29008E0F8D0E8C0DAB14AA13A912A8111207E3
:100A3900045009120DF4120D69120E0FAF14AE1302
:100A4900AD12AC11AB10AA0FA90EA80D12070450D4
:0B0A590009120DEB120D69120E0F22A6
:10090900E4F515F516120D41120DBF120D95120DD4
:1009190069120D69120D69120D69E4F50C120AF0DC
:10092900120C6E7BFF7A0B79FE7D027F02120C3D61
:10093900309527309624209721E5166402451560E5
:1009490010120C6E7BFF7A0C790D7D027F02120C5E
:100959003D751500751602120CC130952730962485
:10096900209721E516640345156010120C6E7BFF74
:100979007A0C791C7D027F02120C3D7515007516E3
:1009890003120CE63095A92096A63097A3E51664C4
:100999000145156010120C6E7BFF7A0C792C7D02D3
:1009A9007F02120C3D7515007516011209B9808078
:0C0DBF0053890F438910E4F58DF58B2259
:0A0DE100C2A3D2A3120003C2A32292
:100B6D00E4F58DF58B120D78120DE130A2FDD28ECC
:100B7D0020A2FDC28EAF8DEFFEAD8B7C00E42DFD6E
:100B8D00EC3EFCE41207827B487AE1798A783F12C9
:100B9D0005FE8F1A8E198D188C177F967E437D8BCF
:0D0BAD007C3CAB1AAA19A918A8171205FE66
:010BBA002218
:0E0D690000007F077E4E7DA7DDFEDEFCDFFA78
:010D77002259
:0D0D8700007F0F7E027DEBDDFEDEFCDFFA5B
:010D9400223C
:040003007F02DFFE9B
:0100070022D6
:0E0D780000007F027E437DB7DDFEDEFCDFFA69
:010D8600224A
:040E180002200000B4
:100D41005389F0438901758A33758CFED28CC28D2B
:050D5100D2A9D2AF227F
:0E0D9500751E00751F03E4F520F521020D8781
:0E0DA300751E00751F01E4F520F521020D6993
:0E0DB100751E00751F05E4F520F521020D6981
:03000B00020BBB2A
:100BBB00C0E0C0D075D000C0000521E52170020552
:100BCB0020758A33758CFEC3E521951FE51E648065
:100BDB00F8E5206480985004D2918002C291E521FF
:100BEB00642845207006F520F521D291D000D0D095
:030BFB00D0E03215
:090DEB00C2B4C2B5C2B2D2B322F7
:090DF400C2B4D2B5C2B2C2B322EE
:090DFD00C2B4D2B5C2B2D2B322D5
:090E0600D2B4C2B5D2B2C2B322CB
:090E0F00C2B4C2B5C2B2C2B322E2
:10000E0000000000000000000000000000000000E2
:10001E00000000F800000000000000333000000077
:10002E0000100C06100C060000000000000000007E
:10003E0040C07840C0784000043F04043F040400F0
:10004E00007088FC08300000001820FF211E000000
:10005E00F008F000E018000000211C031E211E0015
:10006E0000F00888700000001E212324192721109B
:10007E0010160E000000000000000000000000003E
:10008E00000000E0180402000000000718204000E5
:10009E0000020418E00000000040201807000000D5
:1000AE00404080F0804040000202010F0102020039
:1000BE00000000F0000000000101011F010101001D
:1000CE00000000000000000080B070000000000082
:1000DE00000000000000000000010101010101010B
:1000EE0000000000000000000030300000000000A2
:1000FE000000000080601804006018060100000077
:10010E0000E010080810E000000F102020100F0073
:10011E00001010F8000000000020203F20200000FA
:10012E000070080808887000003028242221300052
:10013E0000300888884830000018202020110E005A
:10014E000000C02010F8000000070424243F240003
:10015E0000F80888880808000019212020110E00D8
:10016E0000E0108888180000000F112020110E00EA
:10017E0000380808C83808000000003F00000000E2
:10018E000070880808887000001C222121221C00A3
:10019E0000E010080810E0000000312222110F00CC
:1001AE00000000C0C0000000000000303000000061
:1001BE0000000080000000000000806000000000D1
:1001CE0000008040201008000001020408102000EA
:1001DE004040404040404000040404040404040035
:1001EE0000081020408000000020100804020100CA
:1001FE00007048080808F0000000003036010000CA
:10020E00C030C828E810E0000718272423140B007C
:10021E000000C038E0000000203C230202273820F6
:10022E0008F8888888700000203F202020110E00DA
:10023E00C0300808080838000718202020100800D1
:10024E0008F808080810E000203F202020100F00BA
:10025E0008F88888E8081000203F20202320180086
:10026E0008F88888E8081000203F200003000000EE
:10027E00C03008080838000007182020221E02008F
:10028E0008F808000008F808203F210101213F204E
:10029E00000808F8080800000020203F2020000079
:1002AE0000000808F8080800C08080807F00000069
:1002BE0008F888C028180800203F200126382000A2
:1002CE0008F8080000000000203F20202020300009
:1002DE0008F8F800F8F80800203F003F003F200023
:1002EE0008F830C00008F808203F200007183F002B
:1002FE00E01008080810E0000F10202020100F005A
:10030E0008F808080808F000203F2101010100004C
:10031E00E01008080810E0000F18242438504F0091
:10032E0008F8888888887000203F2000030C302051
:10033E0000708808080838000038202121221C008F
:10034E00180808F8080818000000203F20000000D8
:10035E0008F808000008F808001F202020201F00C1
:10036E000878880000C83808000007380E01000021
:10037E00F80800F80008F800033C0700073C0300EB
:10038E00081868808068180820302C03032C302051
:10039E000838C800C83808000000203F20000000C0
:1003AE0010080808C8380800203826212020180018
:1003BE00000000FE020202000000007F40404000EC
:1003CE00000C30C000000000000000010638C00024
:1003DE0000020202FE000000004040407F000000CC
:1003EE0000000402020204000000000000000000F1
:1003FE0000000000000000008080808080808080EF
:10040E0000020204000000000000000000000000D6
:10041E0000008080808000000019242222223F20CC
:10042E0008F8008080000000003F112020110E000F
:10043E000000008080800000000E1120202011009E
:10044E00000000808088F800000E112020103F2050
:10045E000000808080800000001F222222221300D4
:10046E00008080F0888888180020203F202000001F
:10047E000000808080808000006B949494936000D4
:10048E0008F8008080800000203F210000203F20DF
:10049E0000809898000000000020203F20200000DF
:1004AE00000000809898000000C08080807F0000CF
:1004BE0008F8000080808000203F24022D302000AC
:1004CE00000808F8000000000020203F2020000057
:1004DE008080808080808000203F20003F20003F71
:1004EE008080008080800000203F210000203F207F
:1004FE000000808080800000001F202020201F0030
:10050E00808000808000000080FFA12020110E005E
:10051E000000008080808000000E112020A0FF804F
:10052E00808080008080800020203F2120000100FC
:10053E000000808080808000003324242424190051
:10054E00008080E0808000000000001F202000005E
:10055E008080000000808000001F202020103F209F
:10056E00808080000080808000010E30080601002F
:10057E0080800080008080800F300C030C300F00D4
:10058E0000808000808080000020312E0E312000FF
:10059E00808080000080808080818E70180601002F
:1005AE0000808080808080000021302C222130004D
:1005BE0000000000807C020200000000003F40406E
:1005CE0000000000FF00000000000000FF0000001F
:1005DE000002027C800000000040403F000000004E
:1005EE0000060101020204040000000000000000E9
:0B0DCB00C292D293D29200C293002289
:0B0DD600C292C293D29200D29300227E
:0B0D0B00120CA1120D16AF06120CA175
:0F0D1600D29300D29200A293E433FF00C2920066
:010D250022AB
:070C9A00AE07120DCB7F78BD
:100CA100E4FBFAC292EF33929300D29200C2920017
:0F0CB100EF25E0FF0BBB00010AEB64084A70E47B
:010CC0002211
:050D5600120D5BE4FF3B
:0E0D5B00120C9A120D16E4FF120D0B020DD6AB
:0D0D2600740E2DF58274003CF583E493FFFC
:0E0D3300120C9A120D167F40120D0B020DD6F7
:100AF0007FAE120D567F10120D5B7F40120D5B7F93
:100B0000B0120D5B7F81120D5B7FFF120D5B7FA129
:100B1000120D5B7FA6120D5B7FA8120D5B7F3F124B
:100B20000D5B7FC8120D5B7FD3120D567FD5120D62
:100B30005B7F80120D5B7FD8120D5B7F05120D5B12
:100B40007FD9120D5B7FF1120D5B7FDA120D5B7F97
:100B500012120D5B7FDB120D5B7F30120D5B7F8D00
:0D0B6000120D5B7F14120D5B7FAF020D5B69
:100C6E00E4FDFCED24B0FF120D567F10120D5B90CB
:100C7E000000E4FF120D33A3E5826480458370F219
:0B0C8E000DBD00010CED64084C70D897
:010C99002238
:06082C008F1C8D1DA903C5
:10083200E51C25E024AEFF120D5BE51D540FFF12EF
:100842000D5BE51D7804A2E713D8FB2410FF120DFF
:100852005BE9FF3395E0FEEF24E0FFEE34FFFEEFAD
:10086200C4F8540FC868FFEEC454F048AD07FCE961
:10087200FF3395E0FEEFC4F8540FC868FFEEC4548E
:10088200F048FEEF2408FFEE34FEFEC3ED9FEC9E1F
:10089200500A120D260DBD00010C80D3E51C25E087
:1008A20024AFFF120D5BE51D540FFF120D5BE51D1A
:1008B2007804A2E713D8FB2410FF120D5BE9FF3383
:1008C20095E0FEEFC4F8540FC868FFEEC454F04838
:1008D200FEEF2408FDEE34FEFCE9FF3395E0FEEF67
:1008E200C4F8540FC868FFEEC454F048FEEF241059
:1008F200FFEE34FEFEC3ED9FEC9E500A120D260D54
:06090200BD00010C80D3D2
:0109080022CC
:100C3D008F178D188B198A1A891BAB19AA1AA91B24
:100C4D00120805FB601AAD18AF1712082C74012598
:100C5D001BF51BE4351AF51A74082518F51880DAFA
:010C6D002264
:1005FE00EC4D6011E8497017ED33EC3304600DE4F7
:10060E00FCFFFEFD22E933E8330470F80207F01216
:10061E0007BB58046009E4CC248150062850090217
:10062E0007FA2840030207F7C0E0EB4A7044B9808E
:10063E0006D0E0FB0207E6EF4E701CBD8008EBFF14
:10064E00EAFEE9FD80EBE98DF0A4FEE5F00206E797
:10065E00E9CDF9EAFEEBFFEF89F0A4FCE5F0CE89D7
:10066E00F0A42EFFE435F0CD89F0A42DFEE435F094
:10067E008067EF4E7005BD80D780C3EF8BF0A4ACC2
:10068E00F0EE8BF0A42CFCE435F0F8EF8AF0A42CFD
:10069E00E5F038FCE433CB8DF0A42CFCE5F03BF810
:1006AE00EE8AF0A42CFCE5F038F8E433CF89F0A400
:1006BE002CFCE5F038CF3400CE89F0A42FFFE5F006
:1006CE003EFEE433C98DF0A42EFEE5F039CD8AF05E
:1006DE00A42FFFE5F03EFEE43DFD33D0E0FB5007D6
:1006EE000BBB000F0207FAEC2CFCEF33FFEE33FED0
:0606FE00ED33FD0207D2FE
:1007040074F8CC6480CCC86480C8F58204604FC39C
:10071400EB9FF5F0EA9E42F0E99D42F0E89C45F03B
:10072400603C501DE5825FFFE582D313CB5BCBF4C5
:100734002B5582FB50280ABA002409B900200880EE
:100744001DE5825BFBE582D313CF5FCFF4C3132F88
:100754005582FF50090EBE00050DBD00010CC3EB10
:100764009FF5F0EA9E42F0E99D42F0E89C45F06076
:0907740007CC4820E701B3EC2298
:10077D0075F020800E75F010800575F0087D007EF7
:10078D00007F003392D530D50312081EEC33401094
:10079D00EF33FFEE33FEED33FDEC33FCD5F0ED2200
:0E07AD00E5F0247EA2D513CC92E7CDCEFF223C
:1007BB00E9D2E7C933E833F892D5EDD2E7CD33EC84
:0707CB0033FC5002B2D522FD
:1007D200EC30E7100FBF000C0EBE00080DBD000488
:1007E2000BEB6014A2D5EB13FCED92E7FD2274FF34
:1007F200FCFDFEFF22E480F8A2D574FF13FC7D808D
:03080200E480EFA0
:100A7000020909E493A3F8E493A34003F68001F28A
:100A800008DFF48029E493A3F85407240CC8C33387
:100A9000C4540F4420C8834004F456800146F6DF56
:100AA000E4800B0102040810204080900E18E47EC0
:100AB000019360BCA3FF543F30E509541FFEE4934B
:100AC000A360010ECF54C025E060A840B8E493A312
:100AD000FAE493A3F8E493A3C8C582C8CAC583CA3D
:100AE000F0A3C8C582C8CAC583CADFE9DEE780BEF5
:010E1C0000D5
:10080500BB010689828A83E0225002E722BBFE02F1
:09081500E32289828A83E4932224
:0E081E00C3E49FFFE49EFEE49DFDE49CFC22EB
:00000001FF
