:03000000020BA54B
:0C0BA500787FE4F6D8FD75814E020BEC61
:100E3A0073706565643A256420636D2F73000D0A2B
:010E4A0000A7
:040E4B00022200007F
:05000600D2A8D28822FF
:080EB9008F1C120EC1AF1C22B8
:100CAE00120E28120DFC120006120C31120D73E5F5
:100CBE004A602D750BFF750C0E750D3A854B0E8522
:100CCE004C0F7B007A0079241206727BFF7A0E7924
:100CDE00481206787B007A00792412000EE4F54A59
:100CEE007B007A0079247D027F02120D427E007F06
:0E0CFE00187D007B007A007924120A6880B10C
:03000300020E6981
:0D0E6900C0E00523E52370020522D0E03231
:090E8C00C2B4C2B5C2B7D2B32250
:090E9500C2B4D2B5C2B7C2B32247
:090E9E00C2B4D2B5C2B7D2B3222E
:090EA700D2B4C2B5D2B7C2B32225
:090EB000C2B4C2B5C2B7C2B3223C
:0D0E5B00007F087E017DF3DDFEDEFCDFFA86
:010E68002267
:040E4F00023C000061
:100DFC00758E017598505389F0438920758DFD755A
:090E0C008BFDD28ED2AFD2AC22D4
:080EC1008F993099FDC29922BE
:10000E00120A4FFF600C120EC1740129F9E43AFA7C
:03001E0080EE224F
:03002300020B09C4
:100B0900C0E0C0F0C083C082C0D075D000C000C0B2
:0D0B190001C002C003C004C005C006C00733
:100B2600309847C298AF99BF4D06753C00753D0099
:100B3600053DE53D7002053C14243EF8A607E53E5A
:100B4600B44D27E53F24CE600F14601114601324C2
:100B5600037014120E9E8012120EA7800D120E8CB8
:100B66008008120E958003120EB0E53D640C453CDC
:100B76007012FE7F0CFDFB7A00793E120A68753C06
:040B860000753D00B9
:100B8A00D007D006D005D004D003D002D001D000BF
:0B0B9A00D0D0D082D083D0F0D0E03269
:070E5300014A00024D0000FE
:100E2800758901758A33758CFED28CC28DD2A9D290
:020E3800AF22E7
:03000B00020D0CD7
:100D0C00C0E0C0D0054EE54E7002054D758A3375B6
:100D1C008CFEE54EB4D01AE54DB40715754A017535
:100D2C004D00754E0085224B85234C752200752392
:060D3C0000D0D0D0E0322F
:1000260000000000000000000000000000000000CA
:10003600000000F80000000000000033300000005F
:1000460000100C06100C0600000000000000000066
:1000560040C07840C0784000043F04043F040400D8
:10006600007088FC08300000001820FF211E0000E8
:10007600F008F000E018000000211C031E211E00FD
:1000860000F00888700000001E2123241927211083
:1000960010160E0000000000000000000000000026
:1000A600000000E0180402000000000718204000CD
:1000B60000020418E00000000040201807000000BD
:1000C600404080F0804040000202010F0102020021
:1000D600000000F0000000000101011F0101010005
:1000E600000000000000000080B07000000000006A
:1000F60000000000000000000001010101010101F3
:100106000000000000000000003030000000000089
:10011600000000008060180400601806010000005E
:1001260000E010080810E000000F102020100F005B
:10013600001010F8000000000020203F20200000E2
:10014600007008080888700000302824222130003A
:1001560000300888884830000018202020110E0042
:100166000000C02010F8000000070424243F2400EB
:1001760000F80888880808000019212020110E00C0
:1001860000E0108888180000000F112020110E00D2
:1001960000380808C83808000000003F00000000CA
:1001A6000070880808887000001C222121221C008B
:1001B60000E010080810E0000000312222110F00B4
:1001C600000000C0C0000000000000303000000049
:1001D60000000080000000000000806000000000B9
:1001E60000008040201008000001020408102000D2
:1001F600404040404040400004040404040404001D
:1002060000081020408000000020100804020100B1
:10021600007048080808F0000000003036010000B1
:10022600C030C828E810E0000718272423140B0064
:100236000000C038E0000000203C230202273820DE
:1002460008F8888888700000203F202020110E00C2
:10025600C0300808080838000718202020100800B9
:1002660008F808080810E000203F202020100F00A2
:1002760008F88888E8081000203F2020232018006E
:1002860008F88888E8081000203F200003000000D6
:10029600C03008080838000007182020221E020077
:1002A60008F808000008F808203F210101213F2036
:1002B600000808F8080800000020203F2020000061
:1002C60000000808F8080800C08080807F00000051
:1002D60008F888C028180800203F2001263820008A
:1002E60008F8080000000000203F202020203000F1
:1002F60008F8F800F8F80800203F003F003F20000B
:1003060008F830C00008F808203F200007183F0012
:10031600E01008080810E0000F10202020100F0041
:1003260008F808080808F000203F21010101000034
:10033600E01008080810E0000F18242438504F0079
:1003460008F8888888887000203F2000030C302039
:1003560000708808080838000038202121221C0077
:10036600180808F8080818000000203F20000000C0
:1003760008F808000008F808001F202020201F00A9
:100386000878880000C83808000007380E01000009
:10039600F80800F80008F800033C0700073C0300D3
:1003A600081868808068180820302C03032C302039
:1003B6000838C800C83808000000203F20000000A8
:1003C60010080808C8380800203826212020180000
:1003D600000000FE020202000000007F40404000D4
:1003E600000C30C000000000000000010638C0000C
:1003F60000020202FE000000004040407F000000B4
:1004060000000402020204000000000000000000D8
:1004160000000000000000008080808080808080D6
:1004260000020204000000000000000000000000BE
:1004360000008080808000000019242222223F20B4
:1004460008F8008080000000003F112020110E00F7
:100456000000008080800000000E11202020110086
:10046600000000808088F800000E112020103F2038
:100476000000808080800000001F222222221300BC
:10048600008080F0888888180020203F2020000007
:100496000000808080808000006B949494936000BC
:1004A60008F8008080800000203F210000203F20C7
:1004B60000809898000000000020203F20200000C7
:1004C600000000809898000000C08080807F0000B7
:1004D60008F8000080808000203F24022D30200094
:1004E600000808F8000000000020203F202000003F
:1004F6008080808080808000203F20003F20003F59
:100506008080008080800000203F210000203F2066
:100516000000808080800000001F202020201F0017
:10052600808000808000000080FFA12020110E0046
:100536000000008080808000000E112020A0FF8037
:10054600808080008080800020203F2120000100E4
:100556000000808080808000003324242424190039
:10056600008080E0808000000000001F2020000046
:100576008080000000808000001F202020103F2087
:10058600808080000080808000010E300806010017
:1005960080800080008080800F300C030C300F00BC
:1005A60000808000808080000020312E0E312000E7
:1005B600808080000080808080818E701806010017
:1005C60000808080808080000021302C2221300035
:1005D60000000000807C020200000000003F404056
:1005E60000000000FF00000000000000FF00000007
:1005F6000002027C800000000040403F0000000036
:1006060000060101020204040000000000000000D0
:0B0E7600C292D293D29200C2930022DD
:0B0E8100C292C293D29200D2930022D2
:0B0DC600120DA6120DD1AF06120DA6F3
:0F0DD100D29300D29200A293E433FF00C29200AB
:010DE00022F0
:070D9F00AE07120E767F780B
:100DA600E4FBFAC292EF33929300D29200C2920011
:0F0DB600EF25E0FF0BBB00010AEB64084A70E475
:010DC500220B
:050E1500120E1AE4FFBB
:0E0E1A00120D9F120DD1E4FF120DC6020E81C3
:0D0DE10074262DF58274003CF583E493FF29
:0E0DEE00120D9F120DD17F40120DC6020E8114
:100C31007FAE120E157F10120E1A7F40120E1A7F10
:100C4100B0120E1A7F81120E1A7FFF120E1A7FA1A7
:100C5100120E1A7FA6120E1A7FA8120E1A7F3F12C9
:100C61000E1A7FC8120E1A7FD3120E157FD5120EDF
:100C71001A7F80120E1A7FD8120E1A7F05120E1AD1
:100C81007FD9120E1A7FF1120E1A7FDA120E1A7F15
:100C910012120E1A7FDB120E1A7F30120E1A7F8D7E
:0D0CA100120E1A7F14120E1A7FAF020E1AE7
:100D7300E4FDFCED24B0FF120E157F10120E1A9045
:100D83000000E4FF120DEEA3E5826480458370F258
:0B0D93000DBD00010CED64084C70D891
:010D9E002232
:060972008F0D8D0EA9039C
:10097800E50D25E024AEFF120E1AE50E540FFF1206
:100988000E1AE50E7804A2E713D8FB2410FF120E06
:100998001AE9FF3395E0FEEF24E0FFEE34FFFEEFA7
:1009A800C4F8540FC868FFEEC454F048AD07FCE91A
:1009B800FF3395E0FEEFC4F8540FC868FFEEC45447
:1009C800F048FEEF2408FFEE34FEFEC3ED9FEC9ED8
:1009D800500A120DE10DBD00010C80D3E50D25E094
:1009E80024AFFF120E1AE50E540FFF120E1AE50E71
:1009F8007804A2E713D8FB2410FF120E1AE9FF337C
:100A080095E0FEEFC4F8540FC868FFEEC454F048F0
:100A1800FEEF2408FDEE34FEFCE9FF3395E0FEEF1F
:100A2800C4F8540FC868FFEEC454F048FEEF241011
:100A3800FFEE34FEFEC3ED9FEC9E500A120DE10D51
:060A4800BD00010C80D38B
:010A4E002285
:100D42008F088D098B0A8A0B890CAB0AAA0BA90C96
:100D5200120A4FFB601AAD09AF081209727401251D
:100D62000CF50CE4350BF50B74082509F50980DA4E
:010D7200225E
:100BB100020CAEE493A3F8E493A34003F68001F2A0
:100BC10008DFF48029E493A3F85407240CC8C33345
:100BD100C4540F4420C8834004F456800146F6DF14
:100BE100E4800B0102040810204080900E4BE47E4B
:100BF100019360BCA3FF543F30E509541FFEE49309
:100C0100A360010ECF54C025E060A840B8E493A3CF
:100C1100FAE493A3F8E493A3C8C582C8CAC583CAFA
:100C2100F0A3C8C582C8CAC583CADFE9DEE780BEB2
:010E5A000097
:100A4F00BB010689828A83E0225002E722BBFE02A5
:090A5F00E32289828A83E49322D8
:10061600E517240BF8E60517227808300702780B51
:10062600E475F001120AD3020A4F2000EB7F2ED2A6
:10063600008018EF540F2490D43440D4FF30040BBC
:10064600EF24BFB41A0050032461FFE518600215B9
:1006560018051BE51B7002051A30070D7808E475AE
:10066600F001120AD3EF020AC1020EB97403D207CF
:100676008003E4C207F5178B088A09890AE4F5188E
:10068600F51AF51BE51860077F2012065180F575EF
:1006960019FFC201C200C202C203C205C206C208D5
:1006A60012061FFF700D3007057F00120662AF1B92
:1006B600AE1A22B4255FC2D5C20412061FFF24D08B
:1006C600B40A00501A75F00A781830D50508B6FF36
:1006D6000106C6A426F620D5047002D20380D924CA
:1006E600CFB41A00EF5004C2E5D204020862D20168
:1006F60080C6D20080C0D20280BCD2D580BAD205D4
:1007060080B47F201206512002077401B5180040FC
:10071600F1120616FF12065102068AD208D2068088
:1007260095120616FB120616FA120616F94A4B70B1
:100736000679337A097BFF20022EE518602A7E00AF
:100746008E82758300120A9460060EEE651970F0AB
:10075600C2D5EBC0E0EAC0E0E9C0E0EE1208A9D0DD
:10076600E0F9D0E0FAD0E0FB120A4FFF60AAEBC036
:10077600E0EAC0E0E9C0E0120651D0E02401F9D079
:10078600E03400FAD0E0FBE5190460DCD519D98025
:10079600877BFF7A0879A5D202809C79108002793E
:1007A60008C206C2088008D2D5790A8004790AC22E
:1007B600D5E519047002F519E4FAFDFEFF120616D6
:1007C600FC7B08200113120616FD7B1030000A126E
:1007D6000616FE120616FF7B20EC3382D592D55004
:1007E60013C3E43000069FFFE49EFEE42001039D50
:1007F600FDE49CFCE4CBF8C201EC700CCFCECDCC72
:10080600E824F8F870F38017C3EF33FFEE33FEEDFC
:1008160033FDEC33FCEB33FB994002FB0FD8E9EBDD
:10082600300105F8D0E0C448B201C0E00AEC4D4EF4
:100836004F78207B0070C2EAB5190040BCC0E012B8
:1008460008ABD0F0D0E0200104C4C0E0C4B201C0BF
:10085600F012063AD0F0D5F0EB02068A120AE30748
:10086600275307A15806F84C06F44207A54F07ADD3
:0F0876004407AD49070D4307B35507974607974A
:100885004507974709535006FC2D07002E07232BD4
:10089500070423072120093C2A06BC480000071B42
:1008A5003F3F3F00790AA2D5200314300509B9104E
:1008B500020404B9080104A2D5200602500104204F
:1008C50002689202B518005034C0E07F2030031949
:1008D5007F30A20272067205500F120902C202C2CF
:1008E50006C205C2087F30800F300503E9C0E0125B
:1008F5000651300503D0E0F9D0E0B518CC30051726
:100905007F30B9100C1206517F583004077F78806C
:1009150003B908031206513002057F2D0206517FE7
:10092500202008F87F2B2006F322920280CF286E24
:10093500756C6C2900D2011206163001F8C20178D7
:100945001830D50108F60206BC2D50434958120649
:10095500162403B405004001E490094E93120642A3
:0D096500743A120642D2037518040207A16D
:100A6800EF4E6012EF60010EEDBB010B89828A83A5
:100A7800F0A3DFFCDEFA2289F05007F709DFFCA9B2
:0C0A8800F022BBFEFCF309DFFCA9F02209
:100A9400BB010CE58229F582E5833AF583E0225017
:100AA40006E92582F8E622BBFE06E92582F8E22261
:0D0AB400E58229F582E5833AF583E493227B
:100AC100BB010689828A83F0225002F722BBFE0114
:020AD100F3220E
:100AD300FAE6FB0808E6F925F0F618E6CA3AF62224
:100AE300D083D082F8E4937012740193700DA3A3A2
:100AF30093F8740193F5828883E4737402936860B6
:060B0300EFA3A3A380DFB5
:00000001FF
