:030000000201AA50
:0C01AA00787FE4F6D8FD7581130201F1A6
:1002C7001202E71203521203281202FC120344120D
:1002D70002FC1203361202FC1203281202FC80EC05
:0C03520053890F438910E4F58DF58B22D0
:0A035E00C2A3D2A3120003C2A3221F
:10023600E4F58DF58B12030B12035E30A2FDD28E10
:1002460020A2FDC28EAF8DEFFEAD8B7C00E42DFDAE
:10025600EC3EFCE41201197B487AE1798A783F1278
:10026600000E8F0B8E0A8D098C087F967E437D8B40
:0D0276007C3CAB0BAA0AA909A80812000ED7
:010283002258
:0E02FC0000007F077E4E7DA7DDFEDEFCDFFAF0
:01030A0022D0
:0D031A00007F0F7E027DEBDDFEDEFCDFFAD2
:0103270022B3
:040003007F02DFFE9B
:0100070022D6
:0E030B0000007F027E437DB7DDFEDEFCDFFAE0
:0103190022C1
:04036800020E000081
:1002E7005389F0438901758A33758CFED28CC28D90
:0502F700D2A9D2AF22E4
:0E032800750C00750D03E4F50EF50F02031AB7
:0E033600750C00750D01E4F50EF50F0202FCCA
:0E034400750C00750D05E4F50EF50F0202FCB8
:03000B000202846A
:10028400C0E0C0D075D000C000050FE50F700205B6
:100294000E758A33758CFEC3E50F950DE50C6480ED
:1002A400F8E50E6480985004D2918002C291E50F63
:1002B4006428450E7006F50EF50FD291D000D0D00B
:0302C400D0E03255
:10000E00EC4D6011E8497017ED33EC3304600DE4EC
:10001E00FCFFFEFD22E933E8330470F8020187127B
:10002E00015258046009E4CC24815006285009027C
:10003E00019128400302018EC0E0EB4A7044B98062
:10004E0006D0E0FB02017DEF4E701CBD8008EBFF79
:10005E00EAFEE9FD80EBE98DF0A4FEE5F00200F783
:10006E00E9CDF9EAFEEBFFEF89F0A4FCE5F0CE89CD
:10007E00F0A42EFFE435F0CD89F0A42DFEE435F08A
:10008E008067EF4E7005BD80D780C3EF8BF0A4ACB8
:10009E00F0EE8BF0A42CFCE435F0F8EF8AF0A42CF3
:1000AE00E5F038FCE433CB8DF0A42CFCE5F03BF806
:1000BE00EE8AF0A42CFCE5F038F8E433CF89F0A4F6
:1000CE002CFCE5F038CF3400CE89F0A42FFFE5F0FC
:1000DE003EFEE433C98DF0A42EFEE5F039CD8AF054
:1000EE00A42FFFE5F03EFEE43DFD33D0E0FB5007CC
:1000FE000BBB000F020191EC2CFCEF33FFEE33FE35
:06010E00ED33FD02016962
:1001140075F020800E75F010800575F0087D007E66
:10012400007F003392D530D50312019CEC3340108C
:10013400EF33FFEE33FEED33FDEC33FCD5F0ED226F
:0E014400E5F0247EA2D513CC92E7CDCEFF22AB
:10015200E9D2E7C933E833F892D5EDD2E7CD33ECF3
:0701620033FC5002B2D5226C
:10016900EC30E7100FBF000C0EBE00080DBD0004F7
:100179000BEB6014A2D5EB13FCED92E7FD2274FFA3
:10018900FCFDFEFF22E480F8A2D574FF13FC7D80FC
:03019900E480EF10
:1001B6000202C7E493A3F8E493A34003F68001F296
:1001C60008DFF48029E493A3F85407240CC8C3334A
:1001D600C4540F4420C8834004F456800146F6DF19
:1001E600E4800B0102040810204080900368E47E3E
:1001F600019360BCA3FF543F30E509541FFEE4930E
:10020600A360010ECF54C025E060A840B8E493A3D4
:10021600FAE493A3F8E493A3C8C582C8CAC583CAFF
:10022600F0A3C8C582C8CAC583CADFE9DEE780BEB7
:01036C000090
:0E019C00C3E49FFFE49EFEE49DFDE49CFC2274
:00000001FF
