:03000000020223D6
:0C022300787FE4F6D8FD75811C02026AA9
:1002AF001203AA1204151203EB1203BFE4F508E5BB
:1002BF000860091203EBE4F5081203BF1203198F4C
:1002CF000C8E0B8D0A8C09E4FFFE7D0C7C42AB0C6F
:1002DF00AA0BA90AA809120114600250D21204072E
:1002EF001203BF1203198F108E0F8D0E8C0D120378
:1002FF00EB1203BF1203F97508021203BF120319A1
:0A030F008F148E138D128C1180A53F
:0C04150053890F438910E4F58DF58B220C
:0A042100C2A3D2A3120003C2A3225B
:10031900E4F58DF58B1203CE12042130A2FDD28EA5
:1003290020A2FDC28EAF8DEFFEAD8B7C00E42DFDCA
:10033900EC3EFCE41201927B487AE1798A783F121B
:10034900000E8F188E178D168C157F967E437D8B28
:0D0359007C3CAB18AA17A916A81512000EBF
:010366002274
:0E03BF0000007F077E4E7DA7DDFEDEFCDFFA2C
:0103CD00220D
:0D03DD00007F0F7E027DEBDDFEDEFCDFFA0F
:0103EA0022F0
:040003007F02DFFE9B
:0100070022D6
:0E03CE0000007F027E437DB7DDFEDEFCDFFA1D
:0103DC0022FE
:04042B00021B0000B0
:1003AA005389F0438901758A33758CFED28CC28DCC
:0503BA00D2A9D2AF2220
:0E03EB00751900751A03E4F51BF51C0203DDFD
:0E03F900751900751A01E4F51BF51C0203BF0F
:0E040700751900751A05E4F51BF51C0203BFFC
:03000B0002036786
:10036700C0E0C0D075D000C000051CE51C700205B8
:100377001B758A33758CFEC3E51C951AE5196480D5
:10038700F8E51B6480985004D2918002C291E51C65
:100397006428451B7006F51BF51CD291D000D0D000
:0303A700D0E03271
:10000E00EC4D6011E8497017ED33EC3304600DE4EC
:10001E00FCFFFEFD22E933E8330470F80202001201
:10002E0001CB58046009E4CC248150062850090203
:10003E00020A284003020207C0E0EB4A7044B9806E
:10004E0006D0E0FB0201F6EF4E701CBD8008EBFF00
:10005E00EAFEE9FD80EBE98DF0A4FEE5F00200F783
:10006E00E9CDF9EAFEEBFFEF89F0A4FCE5F0CE89CD
:10007E00F0A42EFFE435F0CD89F0A42DFEE435F08A
:10008E008067EF4E7005BD80D780C3EF8BF0A4ACB8
:10009E00F0EE8BF0A42CFCE435F0F8EF8AF0A42CF3
:1000AE00E5F038FCE433CB8DF0A42CFCE5F03BF806
:1000BE00EE8AF0A42CFCE5F038F8E433CF89F0A4F6
:1000CE002CFCE5F038CF3400CE89F0A42FFFE5F0FC
:1000DE003EFEE433C98DF0A42EFEE5F039CD8AF054
:1000EE00A42FFFE5F03EFEE43DFD33D0E0FB5007CC
:1000FE000BBB000F02020AEC2CFCEF33FFEE33FEBB
:06010E00ED33FD0201E2E9
:1001140074F8CC6480CCC86480C8F58204604FC392
:10012400EB9FF5F0EA9E42F0E99D42F0E89C45F031
:10013400603C501DE5825FFFE582D313CB5BCBF4BB
:100144002B5582FB50280ABA002409B900200880E4
:100154001DE5825BFBE582D313CF5FCFF4C3132F7E
:100164005582FF50090EBE00050DBD00010CC3EB06
:100174009FF5F0EA9E42F0E99D42F0E89C45F0606C
:0901840007CC4820E701B3EC228E
:10018D0075F020800E75F010800575F0087D007EED
:10019D00007F003392D530D503120215EC33401099
:1001AD00EF33FFEE33FEED33FDEC33FCD5F0ED22F6
:0E01BD00E5F0247EA2D513CC92E7CDCEFF2232
:1001CB00E9D2E7C933E833F892D5EDD2E7CD33EC7A
:0701DB0033FC5002B2D522F3
:1001E200EC30E7100FBF000C0EBE00080DBD00047E
:1001F2000BEB6014A2D5EB13FCED92E7FD2274FF2A
:10020200FCFDFEFF22E480F8A2D574FF13FC7D8082
:03021200E480EF96
:10022F000202AFE493A3F8E493A34003F68001F234
:10023F0008DFF48029E493A3F85407240CC8C333D0
:10024F00C4540F4420C8834004F456800146F6DF9F
:10025F00E4800B010204081020408090042BE47E00
:10026F00019360BCA3FF543F30E509541FFEE49394
:10027F00A360010ECF54C025E060A840B8E493A35B
:10028F00FAE493A3F8E493A3C8C582C8CAC583CA86
:10029F00F0A3C8C582C8CAC583CADFE9DEE780BE3E
:01042F0000CC
:0E021500C3E49FFFE49EFEE49DFDE49CFC22FA
:00000001FF
