:03000000020BEA06
:0C0BEA00787FE4F6D8FD758160020C31C4
:100EFD0073706565643A256420636D2F73000D0A68
:010F0D0000E3
:100E170002340000122241542B43495053454E449B
:080E27003D302C32300D0A00B1
:05000600D2A8D28822FF
:080F7D008F1C120F85AF1C222E
:100CF300120EEB120EBF120F1F120E68120F0E12FE
:100D03000006120C76120DEBE55C60397B007A006D
:100D1300792212000E120F1F750BFF750C0E750D45
:100D2300FD855D0E855E0F7B007A007936120672B3
:100D33007BFF7A0F790B1206787B007A00793612E3
:100D4300000EE4F55C7B007A0079367D027F0212A7
:040D53000D8D80B4CE
:03000300020F2DBC
:0D0F2D00C0E00535E53570020534D0E03236
:090F5000C2B4C2B5C2B7D2B3228B
:090F5900C2B4D2B5C2B7C2B32282
:090F6200C2B4D2B5C2B7D2B32269
:090F6B00D2B4C2B5D2B7C2B32260
:090F7400C2B4C2B5C2B7C2B32277
:0D0F1F00007F087E017DF3DDFEDEFCDFFAC1
:010F2C0022A2
:040E2F00024E00006F
:100EBF00758E017598505389F0438920758DFD7596
:090ECF008BFDD28ED2AFD2AC2211
:080F85008F993099FDC29922F9
:10000E00120B30FF600C120F85740129F9E43AFAD5
:03001E0080EE224F
:030023000209725D
:10097200C0E0C0F0C083C082C0D075D000C000C04B
:0D09820001C002C003C004C005C006C007CC
:10098F00209803020A1EC298AF99EF644D6008EFDA
:10099F00644F6003BF3006754E00754F00054FE57D
:1009AF004F7002054E142450F8A607E550B44F17A8
:1009BF00E551B44B12751D017E007F0C7D007B004D
:1009CF007A007950120B49E550B43017E552B44311
:1009DF0012751E017E007F0C7D007B007A0079501E
:1009EF00120B49E550B44D27E55124CE600F14602A
:1009FF001114601324037014120F628012120F6B04
:100A0F00800D120F508008120F598003120F74E5DA
:100A1F004F640C454E7012FE7F0CFDFB7A0079502F
:090A2F00120B49754E00754F00D1
:100A3800D007D006D005D004D003D002D001D00012
:0B0A4800D0D0D082D083D0F0D0E032BC
:070E3300015C00025F0000FA
:100EEB00758901758A33758CFED28CC28DD2A9D2CD
:020EFB00AF2224
:03000B00020D578C
:100D5700C0E0C0D00560E5607002055F758A337535
:100D67008CFEE560B4D01AE55FB40715755C0175B4
:100D77005F0075600085345D85355E7534007535B7
:060D870000D0D0D0E032E4
:1000260000000000000000000000000000000000CA
:10003600000000F80000000000000033300000005F
:1000460000100C06100C0600000000000000000066
:1000560040C07840C0784000043F04043F040400D8
:10006600007088FC08300000001820FF211E0000E8
:10007600F008F000E018000000211C031E211E00FD
:1000860000F00888700000001E2123241927211083
:1000960010160E0000000000000000000000000026
:1000A600000000E0180402000000000718204000CD
:1000B60000020418E00000000040201807000000BD
:1000C600404080F0804040000202010F0102020021
:1000D600000000F0000000000101011F0101010005
:1000E600000000000000000080B07000000000006A
:1000F60000000000000000000001010101010101F3
:100106000000000000000000003030000000000089
:10011600000000008060180400601806010000005E
:1001260000E010080810E000000F102020100F005B
:10013600001010F8000000000020203F20200000E2
:10014600007008080888700000302824222130003A
:1001560000300888884830000018202020110E0042
:100166000000C02010F8000000070424243F2400EB
:1001760000F80888880808000019212020110E00C0
:1001860000E0108888180000000F112020110E00D2
:1001960000380808C83808000000003F00000000CA
:1001A6000070880808887000001C222121221C008B
:1001B60000E010080810E0000000312222110F00B4
:1001C600000000C0C0000000000000303000000049
:1001D60000000080000000000000806000000000B9
:1001E60000008040201008000001020408102000D2
:1001F600404040404040400004040404040404001D
:1002060000081020408000000020100804020100B1
:10021600007048080808F0000000003036010000B1
:10022600C030C828E810E0000718272423140B0064
:100236000000C038E0000000203C230202273820DE
:1002460008F8888888700000203F202020110E00C2
:10025600C0300808080838000718202020100800B9
:1002660008F808080810E000203F202020100F00A2
:1002760008F88888E8081000203F2020232018006E
:1002860008F88888E8081000203F200003000000D6
:10029600C03008080838000007182020221E020077
:1002A60008F808000008F808203F210101213F2036
:1002B600000808F8080800000020203F2020000061
:1002C60000000808F8080800C08080807F00000051
:1002D60008F888C028180800203F2001263820008A
:1002E60008F8080000000000203F202020203000F1
:1002F60008F8F800F8F80800203F003F003F20000B
:1003060008F830C00008F808203F200007183F0012
:10031600E01008080810E0000F10202020100F0041
:1003260008F808080808F000203F21010101000034
:10033600E01008080810E0000F18242438504F0079
:1003460008F8888888887000203F2000030C302039
:1003560000708808080838000038202121221C0077
:10036600180808F8080818000000203F20000000C0
:1003760008F808000008F808001F202020201F00A9
:100386000878880000C83808000007380E01000009
:10039600F80800F80008F800033C0700073C0300D3
:1003A600081868808068180820302C03032C302039
:1003B6000838C800C83808000000203F20000000A8
:1003C60010080808C8380800203826212020180000
:1003D600000000FE020202000000007F40404000D4
:1003E600000C30C000000000000000010638C0000C
:1003F60000020202FE000000004040407F000000B4
:1004060000000402020204000000000000000000D8
:1004160000000000000000008080808080808080D6
:1004260000020204000000000000000000000000BE
:1004360000008080808000000019242222223F20B4
:1004460008F8008080000000003F112020110E00F7
:100456000000008080800000000E11202020110086
:10046600000000808088F800000E112020103F2038
:100476000000808080800000001F222222221300BC
:10048600008080F0888888180020203F2020000007
:100496000000808080808000006B949494936000BC
:1004A60008F8008080800000203F210000203F20C7
:1004B60000809898000000000020203F20200000C7
:1004C600000000809898000000C08080807F0000B7
:1004D60008F8000080808000203F24022D30200094
:1004E600000808F8000000000020203F202000003F
:1004F6008080808080808000203F20003F20003F59
:100506008080008080800000203F210000203F2066
:100516000000808080800000001F202020201F0017
:10052600808000808000000080FFA12020110E0046
:100536000000008080808000000E112020A0FF8037
:10054600808080008080800020203F2120000100E4
:100556000000808080808000003324242424190039
:10056600008080E0808000000000001F2020000046
:100576008080000000808000001F202020103F2087
:10058600808080000080808000010E300806010017
:1005960080800080008080800F300C030C300F00BC
:1005A60000808000808080000020312E0E312000E7
:1005B600808080000080808080818E701806010017
:1005C60000808080808080000021302C2221300035
:1005D60000000000807C020200000000003F404056
:1005E60000000000FF00000000000000FF00000007
:1005F6000002027C800000000040403F0000000036
:1006060000060101020204040000000000000000D0
:0B0F3A00C292D293D29200C293002218
:0B0F4500C292C293D29200D29300220D
:0B0E8900120E48120E94AF06120E4825
:0F0E9400D29300D29200A293E433FF00C29200E7
:010EA300222C
:070E4100AE07120F3A7F78A3
:100E4800E4FBFAC292EF33929300D29200C292006E
:0F0E5800EF25E0FF0BBB00010AEB64084A70E4D2
:010E67002268
:050ED800120EDDE4FF35
:0E0EDD00120E41120E94E4FF120E89020F4510
:0D0EA40074262DF58274003CF583E493FF65
:0E0EB100120E41120E947F40120E89020F4560
:100C76007FAE120ED87F10120EDD7F40120EDD7F82
:100C8600B0120EDD7F81120EDD7FFF120EDD7FA119
:100C9600120EDD7FA6120EDD7FA8120EDD7F3F123B
:100CA6000EDD7FC8120EDD7FD3120ED87FD5120E51
:100CB600DD7F80120EDD7FD8120EDD7F05120EDD80
:100CC6007FD9120EDD7FF1120EDD7FDA120EDD7F87
:100CD60012120EDD7FDB120EDD7F30120EDD7F8DF0
:0D0CE600120EDD7F14120EDD7FAF020EDD59
:100DEB00E4FDFCED24B0FF120ED87F10120EDD9047
:100DFB000000E4FF120EB1A3E5826480458370F21C
:0B0E0B000DBD00010CED64084C70D818
:010E160022B9
:060A53008F0D8D0EA903BA
:100A5900E50D25E024AEFF120EDDE50E540FFF1261
:100A69000EDDE50E7804A2E713D8FB2410FF120E61
:100A7900DDE9FF3395E0FEEF24E0FFEE34FFFEEF02
:100A8900C4F8540FC868FFEEC454F048AD07FCE938
:100A9900FF3395E0FEEFC4F8540FC868FFEEC45465
:100AA900F048FEEF2408FFEE34FEFEC3ED9FEC9EF6
:100AB900500A120EA40DBD00010C80D3E50D25E0EE
:100AC90024AFFF120EDDE50E540FFF120EDDE50E09
:100AD9007804A2E713D8FB2410FF120EDDE9FF33D7
:100AE90095E0FEEFC4F8540FC868FFEEC454F0480F
:100AF900FEEF2408FDEE34FEFCE9FF3395E0FEEF3E
:100B0900C4F8540FC868FFEEC454F048FEEF24102F
:100B1900FFEE34FEFEC3ED9FEC9E500A120EA40DAB
:060B2900BD00010C80D3A9
:010B2F0022A3
:100D8D008F088D098B0A8A0B890CAB0AAA0BA90C4B
:100D9D00120B30FB601AAD09AF08120A537401250E
:100DAD000CF50CE4350BF50B74082509F50980DA03
:010DBD002213
:100DBE0041542B43574D4F44453D320D0A0041548B
:100DCE002B4349504D55583D310D0A0041542B438C
:0D0DDE0049505345525645523D310D0A0013
:060E3A00011D00011E0075
:100E68007BFF7A0D79BE12000EE51D60FCE4F51DCE
:100E78007BFF7A0D79CC12000EE51D60FCE4F51DB0
:010E88002247
:100F0E007BFF7A0D79DA12000EE51E60FCE4F51D0A
:010F1E0022B0
:100BF600020CF3E493A3F8E493A34003F68001F216
:100C060008DFF48029E493A3F85407240CC8C333FF
:100C1600C4540F4420C8834004F456800146F6DFCE
:100C2600E4800B0102040810204080900E17E47E39
:100C3600019360BCA3FF543F30E509541FFEE493C3
:100C4600A360010ECF54C025E060A840B8E493A38A
:100C5600FAE493A3F8E493A3C8C582C8CAC583CAB5
:100C6600F0A3C8C582C8CAC583CADFE9DEE780BE6D
:010E400000B1
:100B3000BB010689828A83E0225002E722BBFE02C3
:090B4000E32289828A83E49322F6
:10061600E517240BF8E60517227808300702780B51
:10062600E475F001120BB4020B302000EB7F2ED2E2
:10063600008018EF540F2490D43440D4FF30040BBC
:10064600EF24BFB41A0050032461FFE518600215B9
:1006560018051BE51B7002051A30070D7808E475AE
:10066600F001120BB4EF020BA2020F7D7403D20746
:100676008003E4C207F5178B088A09890AE4F5188E
:10068600F51AF51BE51860077F2012065180F575EF
:1006960019FFC201C200C202C203C205C206C208D5
:1006A60012061FFF700D3007057F00120662AF1B92
:1006B600AE1A22B4255FC2D5C20412061FFF24D08B
:1006C600B40A00501A75F00A781830D50508B6FF36
:1006D6000106C6A426F620D5047002D20380D924CA
:1006E600CFB41A00EF5004C2E5D204020862D20168
:1006F60080C6D20080C0D20280BCD2D580BAD205D4
:1007060080B47F201206512002077401B5180040FC
:10071600F1120616FF12065102068AD208D2068088
:1007260095120616FB120616FA120616F94A4B70B1
:100736000679337A097BFF20022EE518602A7E00AF
:100746008E82758300120B7560060EEE651970F0C9
:10075600C2D5EBC0E0EAC0E0E9C0E0EE1208A9D0DD
:10076600E0F9D0E0FAD0E0FB120B30FF60AAEBC054
:10077600E0EAC0E0E9C0E0120651D0E02401F9D079
:10078600E03400FAD0E0FBE5190460DCD519D98025
:10079600877BFF7A0879A5D202809C79108002793E
:1007A60008C206C2088008D2D5790A8004790AC22E
:1007B600D5E519047002F519E4FAFDFEFF120616D6
:1007C600FC7B08200113120616FD7B1030000A126E
:1007D6000616FE120616FF7B20EC3382D592D55004
:1007E60013C3E43000069FFFE49EFEE42001039D50
:1007F600FDE49CFCE4CBF8C201EC700CCFCECDCC72
:10080600E824F8F870F38017C3EF33FFEE33FEEDFC
:1008160033FDEC33FCEB33FB994002FB0FD8E9EBDD
:10082600300105F8D0E0C448B201C0E00AEC4D4EF4
:100836004F78207B0070C2EAB5190040BCC0E012B8
:1008460008ABD0F0D0E0200104C4C0E0C4B201C0BF
:10085600F012063AD0F0D5F0EB02068A120BC40766
:10086600275307A15806F84C06F44207A54F07ADD3
:0F0876004407AD49070D4307B35507974607974A
:100885004507974709535006FC2D07002E07232BD4
:10089500070423072120093C2A06BC480000071B42
:1008A5003F3F3F00790AA2D5200314300509B9104E
:1008B500020404B9080104A2D5200602500104204F
:1008C50002689202B518005034C0E07F2030031949
:1008D5007F30A20272067205500F120902C202C2CF
:1008E50006C205C2087F30800F300503E9C0E0125B
:1008F5000651300503D0E0F9D0E0B518CC30051726
:100905007F30B9100C1206517F583004077F78806C
:1009150003B908031206513002057F2D0206517FE7
:10092500202008F87F2B2006F322920280CF286E24
:10093500756C6C2900D2011206163001F8C20178D7
:100945001830D50108F60206BC2D50434958120649
:10095500162403B405004001E490094E93120642A3
:0D096500743A120642D2037518040207A16D
:100B4900EF4E6012EF60010EEDBB010B89828A83C3
:100B5900F0A3DFFCDEFA2289F05007F709DFFCA9D0
:0C0B6900F022BBFEFCF309DFFCA9F02227
:100B7500BB010CE58229F582E5833AF583E0225035
:100B850006E92582F8E622BBFE06E92582F8E2227F
:0D0B9500E58229F582E5833AF583E4932299
:100BA200BB010689828A83F0225002F722BBFE0132
:020BB200F3222C
:100BB400FAE6FB0808E6F925F0F618E6CA3AF62242
:100BC400D083D082F8E4937012740193700DA3A3C0
:100BD40093F8740193F5828883E4737402936860D4
:060BE400EFA3A3A380DFD4
:00000001FF
