:0300000002001EDD
:0C001E00787FE4F6D8FD758117020065BC
:100164001201A512019075150A7514281201B7120F
:1001740001B77515147514141201B71201B775156A
:0C0184002875140A1201B71201B780DAC6
:0501F200C2B4D2B522E9
:0501F700C2B4C2B522F4
:0501FC00C2B2D2B322E3
:05020100C2B2C2B322ED
:09000E00C2B4C2B5C2B2D2B322E1
:0901C500C2B4D2B5C2B2C2B32229
:0901CE00C2B4D2B5C2B2D2B32210
:0901D700D2B4C2B5D2B2C2B32207
:0901E000C2B4C2B5C2B2C2B3221E
:0D01B700007F087E017DF3DDFEDEFCDFFA37
:0101C4002218
:0801E9007F127EEBDEFEDFFC5D
:0101F10022EB
:06000300011700011600C8
:1001A500758901758A33758CFED28CC28DD2A9D220
:0201B500AF2277
:1001900053890F438910758B33758DFED28EC28FB4
:0501A000D2ABD2AF223A
:03000B000200AA46
:1000AA00C0E0C0F0C083C082C0D075D000C000C01C
:1000BA0001C002C003C004C005C006C00705177509
:1000CA008A33758CFEC3E5156480F8E51764809859
:1000DA0050051201F280031201F7E517B4280375DF
:1000EA001700D007D006D005D004D003D002D00123
:0D00FA00D000D0D0D082D083D0F0D0E03242
:03001B00020107D8
:10010700C0E0C0F0C083C082C0D075D000C000C0BE
:1001170001C002C003C004C005C006C007051675AC
:100127008B33758DFEC3E5146480F8E516648098FB
:1001370050051201FC8003120201E516B42803756D
:100147001600D007D006D005D004D003D002D001C6
:0D015700D000D0D0D082D083D0F0D0E032E4
:10002A00020164E493A3F8E493A34003F68001F287
:10003A0008DFF48029E493A3F85407240CC8C333D7
:10004A00C4540F4420C8834004F456800146F6DFA6
:10005A00E4800B0102040810204080900003E47E33
:10006A00019360BCA3FF543F30E509541FFEE4939B
:10007A00A360010ECF54C025E060A840B8E493A362
:10008A00FAE493A3F8E493A3C8C582C8CAC583CA8D
:10009A00F0A3C8C582C8CAC583CADFE9DEE780BE45
:0100090000F6
:00000001FF
