:0300000002001EDD
:0C001E00787FE4F6D8FD758117020065BC
:100164001201AE12019920A70920A6067515127571
:10017400141430A70920A60675150F75141920A7A5
:100184000930A60675140F75151930A7D930A6D6EF
:050194001201E980D119
:0501FB00C2B4D2B522E0
:05020000C2B4C2B522EA
:05020500C2B2D2B322D9
:05020A00C2B2C2B322E4
:09000E00C2B4C2B5C2B2D2B322E1
:0901CE00C2B4D2B5C2B2C2B32220
:0901D700C2B4D2B5C2B2D2B32207
:0901E000D2B4C2B5D2B2C2B322FE
:0901E900C2B4C2B5C2B2C2B32215
:0D01C000007F087E017DF3DDFEDEFCDFFA2E
:0101CD00220F
:0801F2007F127EEBDEFEDFFC54
:0101FA0022E2
:06000300011700011600C8
:1001AE00758901758A33758CFED28CC28DD2A9D217
:0201BE00AF226E
:1001990053890F438910758B33758DFED28EC28FAB
:0501A900D2ABD2AF2231
:03000B000200AA46
:1000AA00C0E0C0F0C083C082C0D075D000C000C01C
:1000BA0001C002C003C004C005C006C00705177509
:1000CA008A33758CFEC3E5156480F8E51764809859
:1000DA0050051201FB8003120200E517B4280375CC
:1000EA001700D007D006D005D004D003D002D00123
:0D00FA00D000D0D0D082D083D0F0D0E03242
:03001B00020107D8
:10010700C0E0C0F0C083C082C0D075D000C000C0BE
:1001170001C002C003C004C005C006C007051675AC
:100127008B33758DFEC3E5146480F8E516648098FB
:100137005005120205800312020AE516B42803755A
:100147001600D007D006D005D004D003D002D001C6
:0D015700D000D0D0D082D083D0F0D0E032E4
:10002A00020164E493A3F8E493A34003F68001F287
:10003A0008DFF48029E493A3F85407240CC8C333D7
:10004A00C4540F4420C8834004F456800146F6DFA6
:10005A00E4800B0102040810204080900003E47E33
:10006A00019360BCA3FF543F30E509541FFEE4939B
:10007A00A360010ECF54C025E060A840B8E493A362
:10008A00FAE493A3F8E493A3C8C582C8CAC583CA8D
:10009A00F0A3C8C582C8CAC583CADFE9DEE780BE45
:0100090000F6
:00000001FF
