:0300000002000EED
:0C000E00787FE4F6D8FD758115020055DE
:1000F70012011775140A1201291201297514141215
:10010700012912012975142812012912012980E3F6
:09013700C2B4C2B5C2B2D2B322B7
:09014000C2B4D2B5C2B2C2B322AE
:09014900C2B4D2B5C2B2D2B32295
:09015200D2B4C2B5D2B2C2B3228C
:09015B00C2B4C2B5C2B2C2B322A3
:0D012900007F087E017DF3DDFEDEFCDFFAC5
:0101360022A6
:080164007F127EEBDEFEDFFCE2
:01016C002270
:03000300011500E4
:10011700758901758A33758CFED28CC28DD2A9D2AE
:02012700AF2205
:03000B0002009A56
:10009A00C0E0C0F0C083C082C0D075D000C000C02C
:1000AA0001C002C003C004C005C006C0070515751B
:1000BA008A33758CFEC3E5146480F8E5156480986C
:1000CA005005120149800312015BE515B428037536
:1000DA001500D007D006D005D004D003D002D00135
:0D00EA00D000D0D0D082D083D0F0D0E03252
:10001A000200F7E493A3F8E493A34003F68001F205
:10002A0008DFF48029E493A3F85407240CC8C333E7
:10003A00C4540F4420C8834004F456800146F6DFB6
:10004A00E4800B0102040810204080900003E47E43
:10005A00019360BCA3FF543F30E509541FFEE493AB
:10006A00A360010ECF54C025E060A840B8E493A372
:10007A00FAE493A3F8E493A3C8C582C8CAC583CA9D
:10008A00F0A3C8C582C8CAC583CADFE9DEE780BE55
:0100060000F9
:00000001FF
