:030000000202E910
:0C02E900787FE4F6D8FD75811C0203301C
:1002230012040312044E12045A120418120418E49E
:10023300F508E508600912045AE4F50812041812D7
:1002430003758F0C8E0B8D0A8C09E4FFFE7D0C7CED
:1002530042AB0CAA0BA90AA80912011460074005B6
:1002630012048880CDE4FFFE7D207C41AB0CAA0BF9
:10027300A90AA80912011450051204A380B4120498
:10028300AC1204661204181203758F108E0F8D0EB4
:100293008C0D12045A120418120472750802120407
:1002A300181203758F148E138D128C11AB10AA0FB5
:1002B300A90EA80D1201145009120491120441123F
:1002C30004ACAF10AE0FAD0EAC0DAB14AA13A91254
:1002D300A811120114400302023512049A120441B8
:0602E3001204AC0202351A
:0C044E0053890F438910E4F58DF58B22D3
:0A047E00C2A3D2A3120003C2A322FE
:10037500E4F58DF58B12047E30A2FDD28E20A2FD10
:10038500C28EAF8DEFFEAD8B7C00E42DFDEC3EFC07
:10039500E41201927B487AE1798A783F12000E8F48
:1003A500188E178D168C157F967E437D8B7C3CAB06
:0A03B50018AA17A916A81512000EC9
:0103BF00221B
:0C0434007F0F7E027DEBDDFEDEFCDFFAB8
:010440002299
:040003007F02DFFE9B
:0100070022D6
:0D041800007F037E1A7DDFDDFEDEFCDFFAD3
:0104250022B4
:0C0441007F027E0D7DEDDDFEDEFCDFFAAB
:01044D00228C
:0D042600007F047E277DD1DDFEDEFCDFFAC5
:0104330022A6
:0404B5000219000028
:100403005389F0438901758A33758CFED28CC28D72
:05041300D2A9D2AF22C6
:0C045A00751B00751C03E4F519F51A224F
:0C046600751B00751C05E4F519F51A2241
:0C047200751B00751C01E4F519F51A2239
:03000B000203C02D
:1003C000C0E0C0D075D000C000051AE51A70020563
:1003D00019758A33758CFEC3E51A951CE51B64807C
:1003E000F8E5196480985004D2918002C291E51A10
:1003F000642845197006F519F51AD291D000D0D0AD
:03040000D0E03217
:09048800C2B4D2B5C2B2D2B32253
:09049100C2B4D2B5C2B2C2B3225A
:09049A00C2B4C2B5C2B2D2B32251
:0904A300D2B4C2B5D2B2C2B32238
:0904AC00C2B4C2B5C2B2C2B3224F
:10000E00EC4D6011E8497017ED33EC3304600DE4EC
:10001E00FCFFFEFD22E933E8330470F80202001201
:10002E0001CB58046009E4CC248150062850090203
:10003E00020A284003020207C0E0EB4A7044B9806E
:10004E0006D0E0FB0201F6EF4E701CBD8008EBFF00
:10005E00EAFEE9FD80EBE98DF0A4FEE5F00200F783
:10006E00E9CDF9EAFEEBFFEF89F0A4FCE5F0CE89CD
:10007E00F0A42EFFE435F0CD89F0A42DFEE435F08A
:10008E008067EF4E7005BD80D780C3EF8BF0A4ACB8
:10009E00F0EE8BF0A42CFCE435F0F8EF8AF0A42CF3
:1000AE00E5F038FCE433CB8DF0A42CFCE5F03BF806
:1000BE00EE8AF0A42CFCE5F038F8E433CF89F0A4F6
:1000CE002CFCE5F038CF3400CE89F0A42FFFE5F0FC
:1000DE003EFEE433C98DF0A42EFEE5F039CD8AF054
:1000EE00A42FFFE5F03EFEE43DFD33D0E0FB5007CC
:1000FE000BBB000F02020AEC2CFCEF33FFEE33FEBB
:06010E00ED33FD0201E2E9
:1001140074F8CC6480CCC86480C8F58204604FC392
:10012400EB9FF5F0EA9E42F0E99D42F0E89C45F031
:10013400603C501DE5825FFFE582D313CB5BCBF4BB
:100144002B5582FB50280ABA002409B900200880E4
:100154001DE5825BFBE582D313CF5FCFF4C3132F7E
:100164005582FF50090EBE00050DBD00010CC3EB06
:100174009FF5F0EA9E42F0E99D42F0E89C45F0606C
:0901840007CC4820E701B3EC228E
:10018D0075F020800E75F010800575F0087D007EED
:10019D00007F003392D530D503120215EC33401099
:1001AD00EF33FFEE33FEED33FDEC33FCD5F0ED22F6
:0E01BD00E5F0247EA2D513CC92E7CDCEFF2232
:1001CB00E9D2E7C933E833F892D5EDD2E7CD33EC7A
:0701DB0033FC5002B2D522F3
:1001E200EC30E7100FBF000C0EBE00080DBD00047E
:1001F2000BEB6014A2D5EB13FCED92E7FD2274FF2A
:10020200FCFDFEFF22E480F8A2D574FF13FC7D8082
:03021200E480EF96
:1002F500020223E493A3F8E493A34003F68001F2FA
:1003050008DFF48029E493A3F85407240CC8C33309
:10031500C4540F4420C8834004F456800146F6DFD8
:10032500E4800B01020408102040809004B5E47EAF
:10033500019360BCA3FF543F30E509541FFEE493CD
:10034500A360010ECF54C025E060A840B8E493A394
:10035500FAE493A3F8E493A3C8C582C8CAC583CABF
:10036500F0A3C8C582C8CAC583CADFE9DEE780BE77
:0104B9000042
:0E021500C3E49FFFE49EFEE49DFDE49CFC22FA
:00000001FF
